S0110000446F6F725F4C6F636B2E7372656397
S11300000C942A000C9447000C9447000C9447006D
S11300100C9447000C9447000C9447000C94470040
S11300200C9447000C9447000C9447000C94470030
S11300300C9447000C9447000C9447000C94470020
S11300400C9447000C9447000C9447000C94470010
S11300500C94470011241FBECFE5D8E0DEBFCDBF0E
S113006010E0A0E6B0E0EEE0F4E002C005900D92EE
S1130070AE3AB107D9F720E0AEEAB0E001C01D9274
S1130080A03BB207E1F70E94FA010C9405020C941C
S11300900000CF93DF931F92CDB7DEB7898388B377
S11300A08E7F88BB9981907F9BBB826088BB85E0F3
S11300B08A95F1F70000C1988FE891E00197F1F774
S11300C000C0000089818295807F8BBBC19A95E036
S11300D09A95F1F70000C1988FE891E00197F1F744
S11300E000C000000F90DF91CF9108958FE59AEE44
S11300F00197F1F700C0000087B39FEF9ABB8360BC
S113010087BB1BBAC19883E30E94490082E30E9423
S1130110490088E20E9449008EE00E94490081E083
S11301200E9449008FE39FE10197F1F700C00000AE
S113013086E00E9449000895CF93DF931F92CDB7C4
S1130140DEB7898388B3982F916098BB9981907F9B
S11301509BBB836088BB85E08A95F1F70000C1985A
S11301608FE891E00197F1F700C000008981829542
S1130170807F8BBBC19A95E09A95F1F70000C198F6
S11301808FE891E00197F1F700C000000F90DF9134
S1130190CF9108950F931F93CF938C01FC0180811D
S11301A0811113C00EC00E949C00CF3019F480EC62
S11301B00E944900CF5FF801EC0FF11D808181118D
S11301C0F2CF8FE00E94490004C00E949C00C0E06E
S11301D0F1CFCF911F910F910895CF93DF93EC014D
S11301E081E00E9449008FE19EE40197F1F700C08D
S11301F00000CE010E94CA009FEF23ED80E39150DE
S113020020408040E1F700C0000081E00E944900E6
S1130210DF91CF910895E0E6F0E08EE28083818360
S1130220828383831092AF001092AE0008954F92A0
S11302305F926F927F928F929F92AF92BF92CF9272
S1130240DF92EF92FF920F931F93CF93DF930F2EC2
S1130250F8E6EF2EF0E0FF2EF02D04E010E0CC24C1
S1130260C394D12C0F2EF4E66F2EF0E07F2EF02DE8
S11302700F2EF0E64F2EF0E05F2EF02DC601002E7B
S113028002C0880F991F0A94E2F782BB4701C1E0BC
S1130290D0E080B390E00C2E02C0959587950A9427
S11302A0E2F780FF79C096010C2E02C0220F331FA3
S11302B00A94E2F780B390E082239323892BD1F749
S11302C0D4018C918A3249F5F3019081D2018C9149
S11302D098130CC081E090E0FC01EC59FF4F308191
S11302E0FC01E05AFF4F2081321729F084E790E0A7
S11302F00E94ED0005C001968430910569F764C041
S11303000E940B01EFE1FEE43197F1F700C0000019
S11303108EE790E00E94CA003FC0833289F480E9EE
S113032090E00E94ED000E940B018FE19EE4019792
S1130330F1F700C000008EE790E00E94CA002CC0D4
S11303402091AE003091AF0024303105ACF40E940E
S11303509C00E091AE00F091AF00D4018C91E05A82
S1130360FF4F80838091AE009091AF0001969093EF
S1130370AF008093AE0010C086E990E00E94ED00CB
S11303800E940B01EFE1FEE43197F1F700C0000099
S11303908EE790E00E94CA002196FFEF8F1A9F0A11
S11303A0C430D10509F075CF8FE39CE90197F1F7CB
S11303B000C000000F5F1F4F93E0E90EF11C0830EE
S11303C0110509F05BCF05C085EA90E00E94ED00BD
S11303D097CFDF91CF911F910F91FF90EF90DF9016
S11303E0CF90BF90AF909F908F907F906F905F90D1
S11303F04F90089580EF81BB0E9476008EE790E0D5
S11104000E94CA000E941701FDCFF894FFCF9E
S113040E2E2E2E2E323937393132333435363738A3
S113041E392A3023496E636F727265637400456EB8
S113042E7465722034442050494E204E6F2E3A008B
S113043E436C6561720050494E206D757374206271
S111044E6520344400436F72726563740000CD
S9030000FC
